:100000000C9434000C9451000C94E7040C945100AF
:100010000C9451000C9451000C9451000C940B055D
:100020000C9451000C9451000C9451000C9451000C
:100030000C9451000C9451000C9451000C945100FC
:100040000C9451000C9451000C949A030C94D50319
:100050000C9451000C9451000C9451000C945100DC
:100060000C9451000C94510011241FBECFEFD8E026
:10007000DEBFCDBF11E0A0E0B1E0EAE5FFE002C0E5
:1000800005900D92A234B107D9F721E0A2E4B1E0C6
:1000900001C01D92A038B207E1F70E94F9050C9447
:1000A000AB070C940000239A249A259A229A8CB5C7
:1000B00081658CBD0895282FFC018E2F821B861729
:1000C00030F481918EBD0DB407FEFDCFF6CF0895BB
:1000D000FC019E2F981B961738F41EBC0DB407FE2A
:1000E000FDCF9EB59193F5CF0895CF93DF9300D0C8
:1000F000CDB7DEB7806289836A832A9862E0CE0139
:1001000001960E945B002A9A0F900F90DF91CF9189
:100110000895FF920F931F93CF93DF931F92CDB754
:10012000DEB78B01F42E806289832A9861E0CE01CC
:1001300001960E945B006F2DC8010E945B002A9A05
:100140000F90DF91CF911F910F91FF900895CF9362
:10015000DF9300D0CDB7DEB78A832A9861E0CE0165
:1001600002960E945B0061E0CE0101960E94680049
:100170002A9A89810F900F90DF91CF910895FF9275
:100180000F931F93CF93DF931F92CDB7DEB7898371
:100190008B01F42E2A9861E0CE0101960E945B004B
:1001A0006F2DC8010E9468002A9A0F90DF91CF91AD
:1001B0001F910F91FF900895CF93DF9300D01F926E
:1001C000CDB7DEB7FB0190819B8391819A839281A9
:1001D000998343E0BE016F5F7F4F865F0E94890075
:1001E0000F900F900F90DF91CF91089580E00C94C5
:1001F000A700682F80E00C947500CF93C82F86E08D
:100200000E94A7006C2F660F887F682B86E0CF9135
:100210000C947500CF93C82F86E00E94A700682F2A
:10022000677DC23011F4606203C0C13009F46860B8
:1002300086E0CF910C94750087E00C94A700682F9E
:1002400087E00C94750087E10C94A700682F87E184
:100250000C947500CF93C82F0E94230190E002C038
:1002600095958795CA95E2F78170CF91089586E0BC
:100270000C942A0184E00C942A0181E00C942A0158
:1002800080E00C942A010C944001CF93DF931F92DD
:10029000CDB7DEB782EE89832A9861E0CE01019660
:1002A0000E945B002A9A0F90DF91CF910895CF931F
:1002B000DF931F92CDB7DEB781EE89832A9861E084
:1002C000CE0101960E945B002A9A0F90DF91CF9198
:1002D00008955F980E94F6008E7F82600E94F90068
:1002E00080E70E941F010E9445010E9457018FE98B
:1002F0009FE00197F1F700C000000895CF930E949E
:10030000F600C82F66E471E080E00E94DC008C2FCC
:1003100083600E94F90080E70E941F010E9445014E
:100320000E9457015F9A8FE99FE00197F1F700C0A3
:100330000000CF910895CF93C82F0E94F600CC23E0
:1003400011F0886001C0877FCF910C94F900CF93A2
:10035000C82F0E94F600C13011F4846001C08B7F69
:10036000CF910C94F90020E1829FC00111246F709D
:10037000682B84E00C947500682F6F7785E00C94EF
:1003800075006F73863008F085E08F5E0C94750001
:10039000CF93DF93D62FC82F863008F0C5E082E0D8
:1003A0000E94A70061E070E001C0660FCA95EAF7FD
:1003B000D13011F4682B02C06095682382E0DF9190
:1003C000CF910C947500CF93DF93D62FC82F863032
:1003D00008F0C5E081E00E94A70061E070E001C084
:1003E000660FCA95EAF7D13011F4682B02C0609508
:1003F000682381E0DF91CF910C947500863020F462
:10040000833018F483E001C085E06EEF680F83E06D
:100410000C947500823010F40C94DC00FB016281B6
:10042000865F0C9475000F931F93CF93DF9300D0DA
:100430001F92CDB7DEB78C0143E0BE016F5F7F4FE7
:100440008AE00E94BF00E6E4F1E0898182838A812C
:1004500081838B818083F80180818B8381818A8372
:100460008281898343E0BE016F5F7F4F8AE00E94F3
:10047000890043E0BE016F5F7F4F80E10E948900E9
:100480000F900F900F90DF91CF911F910F910895D2
:100490000E941C0180670C941F0180E60E94A70047
:1004A000813248F00E9445018FE99FE00197F1F702
:1004B00000C0000080E00895CF93C82F0E94F6008E
:1004C000C11102C0806401C08F7BCF910C94F900F0
:1004D000CF93C82F0E94F600C11102C0806201C0F4
:1004E0008F7DCF910C94F900CF93C82F0E94F60016
:1004F000C11102C0806101C08F7ECF910C94F900C0
:10050000462FBC0180EA0C9489005F9A8FE99FE036
:100510000197F1F700C000005F988FE99FE0019715
:10052000F1F700C000000E941C018073B1F3089530
:100530000F931F93CF93DF93EC018B010E944D0229
:10054000F8018083482FBE0181E6DF91CF911F9192
:100550000F910C94BF00613230F40E9480020E941F
:10056000850280E0089581E008950E949802089530
:100570000E941C01982F907486FF07C091E0909311
:10058000450180640E941F0191E0892F089581E058
:10059000809342010895CF93C0914201C130D9F4B4
:1005A000109242010E941C01982F86FF04C0C09344
:1005B000450180E401C080E095FF04C021E0209364
:1005C0004401806294FF04C091E0909343018061F4
:1005D000CF910C941F01CF91089508950895089527
:1005E0000E94CB0280914501882321F00E94ED02F8
:1005F0001092450180914401882321F00E9420053A
:100600001092440180914301882321F00E94EF025F
:10061000109243010895229A2A9A579A5F982A9A2B
:100620008FE99FE00197F1F700C0000083E00E948E
:10063000FD0082E00E940A0181E00E949B0180E0AF
:100640000E94A70167E484E00E9475008DE10E948A
:10065000A700682F64608DE10E9475006FE38CE154
:100660000E9475008AE00E94BC0161E080E00E9467
:10067000C80161E080E00E94E30183E00E94FE0186
:100680008FE99FE00197F1F700C0000080E00E9431
:100690005C0280E00E94680280E00E9474028FE9A0
:1006A0009FE00197F1F700C000000C94480290937E
:1006B000C5008093C400E1ECF0E088E18083808194
:1006C0008068808386E08093C2007894089590913A
:1006D000C00095FFFCCF8093C6000895CF93DF93B1
:1006E000EC018991882319F00E946703FACFDF910A
:1006F000CF910895CF93DF9300D000D01F92CDB754
:10070000DEB74AE0BE016F5F7F4F0E947607CE01E1
:1007100001960E946E030F900F900F900F900F9014
:10072000DF91CF9108958091C00087FFFCCF809129
:10073000C60008951F920F920FB60F9211242F93A7
:100740008F939F93EF93FF939091C60080916E01DA
:100750008F5F8F7020914B01821741F080936E0163
:10076000E0916E01F0E0E45BFE4F9083FF91EF912A
:100770009F918F912F910F900FBE0F901F90189502
:1007800090914B0180916E01981769F080914B0117
:100790008F5F8F7080934B01E0914B01F0E0E45B41
:1007A000FE4F8081089580E008951F920F920FB64A
:1007B0000F9211248F939F93EF93FF9390915C017D
:1007C00080916D01981779F080915C018F5F8F7037
:1007D00080935C01E0915C01F0E0E35AFE4F808180
:1007E0008093C60005C08091C1008F7D8093C100B9
:1007F000FF91EF919F918F910F900FBE0F901F90DF
:10080000189590916D019F5F9F7020915C019217E8
:1008100069F090936D01E0916D01F0E0E35AFE4FB5
:1008200080838091C10080628093C1000895CF933E
:10083000DF93EC01209721F089910E940104FACF07
:10084000DF91CF910895ECE7F0E0808180648083B0
:10085000EAE7F0E080818068808380818660808321
:10086000089590917C00987F892B80937C008091E3
:100870007A00806480937A0080917A0086FDFCCFB4
:1008800080917800909179009695879596958795B7
:100890000895CF93DF93EC018C810E9431048A8309
:1008A0008D810E9431048B83DF91CF910895CF9386
:1008B000DF93EC018C810E94310488838D810E943A
:1008C00031048983DF91CF910895FC01611103C048
:1008D0009081628104C0613011F59181638170E083
:1008E000292F30E0261B370B37FD10C044E6429F0E
:1008F000C001439F900D11242FEF30E0A901461B4A
:10090000570BBA010E944E07862F089554E6959F13
:10091000C00111240E944E078CE9860F089580E0E3
:100920000895FC0180810895FC0181810895CF9391
:10093000DF9300D0CDB7DEB793EA99838A8362E074
:10094000CE0101960E94AB020F900F90DF91CF91E4
:1009500008950F931F93CF938C0160E00E9465046C
:10096000C82F61E0C8010E94650499E09C0F933193
:1009700040F4863514F088E021C08B3A24F587E0F6
:100980001DC0C6356CF0863514F084E017C08B3A74
:1009900014F483E013C0875F8331A8F481E00EC0B4
:1009A000CB3A8CF4863514F086E008C08B3A14F408
:1009B00085E004C0875F833130F482E0CF911F91DE
:1009C0000F910C949704CF911F910F9108951F924E
:1009D0000F920FB60F9211242F933F934F935F9373
:1009E0006F937F938F939F93AF93BF93EF93FF93F7
:1009F0000E94C702FF91EF91BF91AF919F918F919C
:100A00007F916F915F914F913F912F910F900FBE0A
:100A10000F901F9018951F920F920FB60F921124EE
:100A20008F9380916F01882329F080916F0181500D
:100A300080936F018F910F900FBE0F901F901895AC
:100A400010927F010895E0EBF0E080818260808366
:100A5000E1EBF0E08081876080838BE98093B300D5
:100A6000E0E7F0E080818260808378940895CF92FF
:100A7000EF920F93FC01623031F0633031F061305E
:100A800031F481EA03C082EA01C083EA80834183B2
:100A900022830383E482C5820F91EF90CF90089563
:100AA0000F931F93DC01F80190914A01992311F0F3
:100AB000961355C09C91962380914901911107C0CE
:100AC000811105C081E08093490183E010C0882333
:100AD00009F445C091110EC08130A9F490916F01C5
:100AE00091113DC092E09093490160934A01809337
:100AF0006F0135C09EEF980F923050F5109249016A
:100B000010924A0123C0823079F480916F018111E3
:100B100026C083E0809349014115510511F446E94F
:100B200050E040936F011BC0833041F480916F010E
:100B3000811115C084E08093490111C0843079F49B
:100B400080916F0181110BC020936F01608307C0FA
:100B5000843029F41092490110924A0110821F91A9
:100B60000F910895CF93DF9386E091E00E945704A0
:100B700086E091E00E949104D82F86E091E00E94E7
:100B80009404C82F8D2F90E00E947A0383E191E0B6
:100B90000E946E038C2F90E00E947A0380910601E0
:100BA00090E00E947A0383E191E00E946E0383E16A
:100BB00091E00E946E0360E086E091E00E9465048F
:100BC000082E000C990B0E947A0383E191E00E94A9
:100BD0006E0361E086E091E00E946504082E000C3F
:100BE000990B0E947A0386E191E0DF91CF910C94FA
:100BF0006E038AB18B788AB98BB184678BB93D9AC1
:100C000045985B9AE99A87E690E00E9457030E9414
:100C100053000E940B036DE071E080E00E940A0225
:100C200080E191E00E9413020E9469010E94230565
:100C30000E9423048FE99FE00197F1F700C00000B4
:100C400086E091E00E944904D3EA82E0D82E93E046
:100C5000C92E21EAF22EC1E032EAE32E0E94B2054B
:100C60000E94C0038093710102E711E025E04AE091
:100C700050E060E289E290E00E94500525E04AE001
:100C800050E060E489E290E00E94500525E04AE0EF
:100C900050E060E189E290E00E94500525E04AE0E2
:100CA00050E064E089E290E00E94500586E091E027
:100CB0000E94A9049091720180917101911103C069
:100CC000882309F4E8C08736F1F480917001882305
:100CD000D1F081508093700189E191E00E946E0310
:100CE0008091700190E00E947A0380E391E00E947D
:100CF0006E03109276011092770110927801109293
:100D0000790110927A01809171018437F1F4809118
:100D100070018330D0F48F5F8093700189E191E09E
:100D20000E946E038091700190E00E947A0380E33C
:100D300091E00E946E03109276011092770110925A
:100D400078011092790110927A01809171018237B5
:100D500069F580910C018F3F49F18F5F80930C0101
:100D600083E391E00E946E038091700190E00E9405
:100D70007A038AE391E00E946E0380910C0190E077
:100D80000E947A0380E391E00E946E0380910C013F
:100D900090917001E09275019093760180937701B4
:100DA000109278011092790110927A01809171016C
:100DB000863669F580910C01882349F18150809332
:100DC0000C0183E391E00E946E038091700190E03A
:100DD0000E947A038AE391E00E946E0380910C01E5
:100DE00090E00E947A0380E391E00E946E0380917C
:100DF0000C0190917001E0927501909376018093BF
:100E00007701109278011092790110927A01809105
:100E10007201803259F4F0927501C0937601C0934B
:100E20007701C0937801C09379010EC09091710150
:100E3000933769F4F0927501109276011092770160
:100E40001092780110927901C0937A011DC080310F
:100E500029F4D0937501C09276010EC0803431F42C
:100E6000D093750184E08093760106C0843061F4EC
:100E7000D0937501D092760110927701109278018B
:100E80001092790110927A011092720167E085E761
:100E900091E00E94AB020E94F002E0CE97FB072E89
:100EA00016F4009407D077FD09D00E94620707FC72
:100EB00005D03EF4909581959F4F0895709561956A
:100EC0007F4F0895AA1BBB1B51E107C0AA1FBB1F80
:100ED000A617B70710F0A61BB70B881F991F5A95C6
:100EE000A9F780959095BC01CD010895BB274A30A4
:100EF00031F4992322F4BDE2909581959F4F0C9493
:100F00008207BB27FB015527AA27880F991FAA1F15
:100F1000A41710F0A41B83955051B9F7A05DAA3314
:100F200008F0A95DA193009779F7B111B1931192DF
:100F3000CB010C949B07DC01FC01672F7191772397
:100F4000E1F7329704C07C916D9370836291AE1784
:0A0F5000BF07C8F30895F894FFCF1F
:100F5A00000000000203000000000001FA03020181
:100F6A000102032020000A0D0045646974696E6756
:100F7A00206D6F746F72206E756D6265723A200013
:100F8A000D0A004D6F746F7220002050574D3A20A1
:020F9A00000055
:00000001FF
